:020000040800F2
:1000000000000220DD2200085D2200085F220008B7
:100010006122000863220008652200080000000039
:10002000000000000000000000000000672200083F
:1000300069220008000000006B2200086D22000801
:100040002D2300082D2300082D2300082D23000850
:100050002D2300082D2300082D2300082D23000840
:100060002D2300082D2300082D2300082D23000830
:100070002D2300082D2300082D2300082D23000820
:100080002D2300082D2300082D2300082D23000810
:100090002D2300082D2300082D2300082D23000800
:1000A0002D2300082D2300082D2300082D230008F0
:1000B0002D2300082D2300082D2300082D230008E0
:1000C0002D2300082D2300082D2300082D230008D0
:1000D0002D2300082D230008752200082D23000879
:1000E000852200082D2300082D2300082D23000859
:1000F0002D2300082D2300082D2300082D230008A0
:100100002D2300082D2300082D2300082D2300088F
:100110002D2300082D2300082D2300082D2300087F
:100120002D2300082D2300082D2300082D2300086F
:100130002D2300082D2300082D2300082D2300085F
:100140002D2300082D2300082D2300082D2300084F
:100150002D2300082D2300082D2300082D2300083F
:100160002D2300082D2300082D2300082D2300082F
:100170002D2300082D2300082D2300080000000077
:080180002D2300082D230008C7
:1001880010B5054C237833B9044B13B10448AFF3C9
:1001980000800123237010BD0C0000200000000027
:1001A8008823000808B5034B1BB103490348AFF384
:1001B800008008BD0000000010000020882300080F
:1001C80053B94AB9002908BF00281CBF4FF0FF31B6
:1001D8004FF0FF3000F072B9ADF1080C6DE904CEB4
:1001E80000F006F8DDF804E0DDE9022304B070470A
:1001F8002DE9F047089E04468846002B4BD18A42D9
:10020800154667D9B2FA82F24AB1C2F1200701FA5B
:1002180002F320FA07F7954047EA030894404FEAAB
:10022800154E230CB8FBFEF71FFA85FC0EFB17884A
:1002380043EA084307FB0CF1994209D9EB1807F187
:10024800FF3080F01B81994240F21881023F2B4415
:100258005B1AA4B2B3FBFEF00EFB103344EA03446E
:1002680000FB0CFCA44509D92C1900F1FF3380F0E0
:100278000781A44540F2048102382C4440EA074033
:10028800A4EB0C0400271EB1D4400023C6E90043A8
:100298003946BDE8F0878B4209D9002E00F0EB8083
:1002A8000027C6E9000138463946BDE8F087B3FAA9
:1002B80083F7002F47D18B4202D3824200F2FA80A3
:1002C800841A61EB030301209846002EE0D0C6E9AA
:1002D8000048DDE702B9FFDEB2FA82F2002A40F0F8
:1002E8008F80491B4FEA154E1FFA85F80127B1FB8D
:1002F800FEFC230C0EFB1C1143EA014308FB0CF126
:10030800994207D9EB180CF1FF3002D2994200F25A
:10031800CD808446591AA3B2B1FBFEF00EFB10142F
:1003280043EA044408FB00F8A04507D92C1900F15A
:10033800FF3302D2A04500F2B6801846A4EB0804A9
:1003480040EA0C409FE7C7F1200CBB4022FA0CFEA4
:100358004EEA030E01FA07F420FA0CF521FA0CF321
:100368004FEA1E482543B3FBF8F92C0C08FB193358
:100378001FFA8EFA44EA034309FB0AF49C4202FA84
:1003880007F200FA07F10BD91EEB030309F1FF305E
:1003980080F087809C4240F28480A9F1020973446E
:1003A8001B1BADB2B3FBF8F008FB103345EA03445E
:1003B80000FB0AFAA24508D91EEB040400F1FF333A
:1003C8006BD2A24569D90238744440EA0940A0FBBF
:1003D8000289A4EB0A044C45C2464B4654D351D07B
:1003E800002E69D0B1EB0A0564EB030404FA0CFC97
:1003F800FD40FC404CEA0505C6E90054002747E7E4
:10040800C2F1200320FA03F7954001FA02F021FA1D
:1004180003F34FEA154E3843010CB3FBFEF71FFAFE
:1004280085F80EFB173341EA034107FB08F38B42BB
:1004380004FA02F407D9691807F1FF3C2FD28B425E
:100448002DD9023F2944CB1A81B2B3FBFEF00EFB33
:10045800103341EA034100FB08F38B4207D96918BE
:1004680000F1FF3C17D28B4215D902382944C91A2A
:1004780040EA07473BE73746304609E70746E7E6DD
:100488001846FBE64145ABD2B8EB020A69EB0E020F
:1004980001381346A4E76046E9E7184695E767463A
:1004A800D1E781467CE702382C4447E7ACF1020CDF
:1004B8002B442FE7384608E73746E9E6704700BF80
:1004C80010B504460E4B18784FF47A73B3FBF0F36B
:1004D8000C4A1068B0FBF3F000F096F868B90F2CDE
:1004E80001D901200AE0002221464FF0FF3000F038
:1004F80049F8034B5C60002000E0012010BD00BFFC
:10050800000000200800002008B50B4B1A6842F4D0
:1005180000721A601A6842F480621A601A6842F41B
:1005280080721A60032000F01BF80020FFF7C8FF54
:1005380001F0F0FD002008BD003C0240034A1168AC
:10054800034B1B780B441360704700BF300000203A
:1005580000000020014B1868704700BF30000020E1
:10056800074AD36823F4E0631B041B0C000200F461
:10057800E060184340F0BF6040F40030D06070473E
:1005880000ED00E030B4174BDB68C3F30223C3F17E
:100598000704042C28BF04241D1D062D18D9033B6D
:1005A8004FF0FF3505FA04F421EA0401994005FAF1
:1005B80003F322EA0303194300280BDB0901C9B23C
:1005C80000F1604000F5614080F8001330BC7047CE
:1005D8000023E5E700F00F000901C9B2024B1954E6
:1005E800F4E700BF00ED00E014ED00E0002807DBB1
:1005F80000F01F02400901239340024A42F82030CC
:10060800704700BF00E100E00138B0F1807F0AD2F6
:10061800064B5860064AF02182F8231000209860A3
:1006280007221A6070470120704700BF10E000E001
:1006380000ED00E090F83530DBB2022B03D08023C8
:10064800436501207047052380F835300268136838
:1006580023F00103136000207047000000230F2BD4
:1006680000F2D780F0B482B039E0072200E000221F
:10067800B2403A430234674E46F82420664A14686A
:10068800EA4302EA04064F6817F4803F01D045EABE
:100698000406614C2660646802EA04064F6817F491
:1006A800003F01D045EA04065B4C6660A46802EA94
:1006B80004064F6817F4801F01D045EA0406564C1B
:1006C800A660E46822404E6816F4001F01D045EA8F
:1006D8000402514CE26001330F2B00F29780012293
:1006E8009A400C6804EA0205AA42F4D14C68022C2C
:1006F80001D0122C10D1DE08083650F826C003F0BD
:100708000704A7000F24BC402CEA040C0C69BC4069
:1007180044EA0C0440F8264004685F000326BE4003
:10072800F64306EA040C4C6804F00304BC4044EAAF
:100738000C0404604C6804F1FF3CBCF1010F03D9C0
:10074800112C01D0122C10D1846806EA040CCC6854
:10075800BC4044EA0C048460446824EA02024C6801
:10076800C4F300149C4014434460C26816408A686D
:10077800BA403243C2604A6812F0805FABD00022B0
:100788000192264A546C44F480445464526C02F436
:1007980080420192019A9C08A61C1E4A52F82670B3
:1007A80003F0030296000F22B24027EA02071C4A10
:1007B80090423FF45CAF02F5806290421AD002F595
:1007C8008062904218D002F58062904216D002F5FD
:1007D8008062904214D002F58062904212D002F5F5
:1007E8008062904210D002F5806290423FF43DAFA3
:1007F80008223DE701223BE7022239E7032237E7D7
:10080800042235E7052233E7062231E702B0F0BCBF
:100818007047704700380140003C014000380240F2
:100828000000024012B90904816170478161704774
:1008380008B5054B5B69034200D108BD024B5861FE
:1008480001F08AFBF9E700BF003C0140002800F0F6
:10085800BB8170B582B00446036813F0010F3BD02A
:10086800A74B9B6803F00C03042B2CD0A44B9B686C
:1008780003F00C03082B21D06368B3F5803F4FD0F9
:10088800B3F5A02F52D09E4B1A6822F480321A601A
:100898001A6822F480221A606368002B50D0FFF790
:1008A80059FE0546964B1B6813F4003F14D1FFF719
:1008B80051FE401B6428F5D903208AE1904B5B6800
:1008C80013F4800FD8D08E4B1B6813F4003F03D06D
:1008D8006368002B00F07A81236813F0020F55D06B
:1008E800874B9B6813F00C0F3ED0854B9B6803F039
:1008F8000C03082B33D0E368002B68D0814B01220E
:100908001A60FFF727FE05467D4B1B6813F0020FA0
:1009180054D1FFF71FFE401B0228F5D9032058E1E8
:10092800774A136843F480331360B5E7744B1A6849
:1009380042F480221A601A6842F480321A60ABE7E7
:10094800FFF708FE05466E4B1B6813F4003FC3D043
:10095800FFF700FE401B6428F5D9032039E1684BF6
:100968005B6813F4800FC6D1654B1B6813F0020F48
:1009780004D0E368012B01D001202AE1604A136802
:1009880023F0F803216943EAC1031360236813F0D5
:10099800080F40D0636963B35B4B01221A60FFF70D
:1009A800D9FD0546564B5B6F13F0020F33D1FFF7A5
:1009B800D1FD401B0228F5D903200AE1504A1368EB
:1009C80023F0F803216943EAC1031360DEE74D4BC6
:1009D80000221A60FFF7BEFD0546494B1B6813F05D
:1009E800020FD3D0FFF7B6FD401B0228F5D903202C
:1009F800EFE0454B00221A60FFF7ACFD0546404B7F
:100A08005B6F13F0020F06D0FFF7A4FD401B02280E
:100A1800F5D90320DDE0236813F0040F79D0384BB3
:100A28001B6C13F0805F33D100230193344B1A6C95
:100A380042F080521A641B6C03F080530193019BAF
:100A48000125324B1B6813F4807F23D0A368012B48
:100A580034D0052B38D02A4B1A6F22F001021A67BE
:100A68001A6F22F004021A67A368002B36D0FFF72A
:100A780071FD0646224B1B6F13F0020F48D1FFF79A
:100A880069FD801B41F288339842F3D90320A0E026
:100A98000025D6E71D4A136843F480731360FFF7F7
:100AA80059FD0646194B1B6813F4807FCED1FFF71A
:100AB80051FD801B0228F5D903208AE0104A136FE4
:100AC80043F001031367CFE70D4B1A6F42F004029E
:100AD8001A671A6F42F001021A67C5E7FFF73AFD75
:100AE8000646074B1B6F13F0020F11D0FFF732FDBC
:100AF800801B41F288339842F3D9032069E000BF94
:100B08000038024000004742800E47420070004013
:100B1800E5B9A369002B5BD0304A926802F00C0259
:100B2800082A58D0022B17D02D4B00221A60FFF745
:100B380011FD0446294B1B6813F0007F42D0FFF7D4
:100B480009FD001B0228F5D9032042E0234A136C53
:100B580023F080531364DCE7214B00221A60FFF76F
:100B6800F9FC05461D4B1B6813F0007F06D0FFF704
:100B7800F1FC401B0228F5D903202AE0E369226A28
:100B88001343626A43EA8213A26A5208013A43EAAB
:100B98000243E26A43EA0263104A5360104B01229F
:100BA8001A60FFF7D7FC04460C4B1B6813F0007F54
:100BB80006D1FFF7CFFC001B0228F5D9032008E077
:100BC800002006E0002004E001207047012000E03A
:100BD800002002B070BD0120FBE700BF00380240D2
:100BE80060004742264B9B6803F00C03042B44D05B
:100BF800082B01D0234870472DE9F04B204B5A6849
:100C080002F03F025B6813F4800F13D01C4B596845
:100C1800C1F3881100231C48A1FB0001FFF7D0FA9B
:100C2800174B5B68C3F3014301335B00B0FBF3F080
:100C3800BDE8F08B124B5B68C3F388131E46002790
:100C48005C010025E41A65EB0705A90141EA9461F6
:100C5800A001001B61EB0501CB0043EA5073C400FF
:100C6800A01943EB07018B0243EA90538402204604
:100C780019460023FFF7A4FAD2E70348704700BFDC
:100C8800003802400024F40040787D01002800F07C
:100C98009D8070B504464F4B1B6803F00F038B42D1
:100CA80009D2CBB24B4A1370136803F00F038B427F
:100CB80001D0012070BD236813F0020F17D013F084
:100CC800040F04D0444A936843F4E05393602368C4
:100CD80013F0080F04D0404A936843F460439360CC
:100CE8003D4A936823F0F003A068034393600D46E0
:100CF800236813F0010F32D06368012B21D09A1EAC
:100D0800012A25D9344A126812F0020F60D03249FC
:100D18008A6822F0030213438B60FFF71BFC064628
:100D28002D4B9B6803F00C036268B3EB820F16D05F
:100D3800FFF710FC801B41F288339842F0D903205A
:100D4800B8E7254A126812F4003FE0D10120B1E764
:100D5800214A126812F0007FD9D10120AAE71D4B61
:100D68001B6803F00F03AB4209D9EAB2194B1A709A
:100D78001B6803F00F03AB4201D001209AE72368F8
:100D880013F0040F06D0144A936823F4E053E16883
:100D98000B439360236813F0080F07D00E4A93683B
:100DA80023F46043216943EAC1039360FFF71AFF04
:100DB800094B9B68C3F30313084AD35CD840084B1C
:100DC80018600020FFF77CFB002073E701207047C4
:100DD80001206FE7003C024000380240A0230008D1
:100DE80008000020014B1868704700BF0800002069
:100DF80008B5FFF7F7FF044B9B68C3F38223034A48
:100E0800D35CD84008BD00BF00380240B0230008BA
:100E180008B5FFF7E7FF044B9B68C3F34233034A67
:100E2800D35CD84008BD00BF00380240B02300089A
:100E380030B4036A23F001030362056A42688469D7
:100E480024F073040B681C4325F002058B682B43C0
:100E5800104DA84203D005F58065A84205D123F0BE
:100E68000803CD682B4323F004030A4DA84203D09E
:100E780005F58065A84205D122F440724D691543F5
:100E88008A692A43426084614A684263036230BCCB
:100E9800704700BF0000014030B4036A23F4807338
:100EA8000362036A4268C46924F073040D682C4322
:100EB80023F400738D6843EA0523124DA84203D03A
:100EC80005F58065A84206D123F40063CD6843EA9E
:100ED800052323F480630B4DA84203D005F58065F4
:100EE800A84207D122F440524D6942EA05128D69A1
:100EF80042EA05124260C4614A68C263036230BCB8
:100F0800704700BF0000014030B4036A23F48053E7
:100F18000362036A4468C26922F4E6420D6842EA41
:100F2800052223F400538D6843EA0533094DA8428E
:100F380003D005F58065A84204D124F480444D69A6
:100F480044EA85144460C2614A680264036230BCA2
:100F5800704700BF00000140704700000368304A36
:100F6800904212D0B0F1804F0FD0A2F57C4290424F
:100F78000BD002F58062904207D002F58062904261
:100F880003D002F57842904203D123F070034A68F7
:100F98001343234A90422AD0B0F1804F27D0A2F5BC
:100FA8007C42904223D002F5806290421FD002F525
:100FB800806290421BD002F57842904217D002F529
:100FC8007052904213D002F5806290420FD002F521
:100FD800806290420BD0A2F59832904207D002F579
:100FE8008062904203D002F58062904203D123F4DC
:100FF8004073CA68134323F080034A6913430360AC
:101008008B68C3620B688362054B984203D003F573
:101018008063984201D10B690363012343617047E0
:1010280000000140A8B110B5044690F83D305BB10E
:10103800022384F83D30211D2068FFF78FFF01232C
:1010480084F83D30002010BD80F83C30FFF784FF65
:10105800EEE701207047A8B110B5044690F83D307E
:101068005BB1022384F83D30211D2068FFF776FF2D
:10107800012384F83D30002010BD80F83C3001F099
:1010880065F8EEE70120704730B4036A23F01003D7
:101098000362036A4468826922F4E6420D6842EA00
:1010A800052223F020038D6843EA0513114DA84259
:1010B80003D005F58065A84206D123F08003CD68EA
:1010C80043EA051323F040030A4DA84203D005F56F
:1010D8008065A84207D124F440644D6944EA850438
:1010E8008D6944EA8504446082614A6882630362C8
:1010F80030BC70470000014090F83C30012B28D0EC
:1011080010B50446012380F83C30022380F83D30B6
:101118000C2A0BD8DFE802F0070A0A0A110A0A0AA1
:10112800150A0A0A19000068FFF782FE012384F8ED
:101138003D30002084F83C0010BD0068FFF7A4FF94
:10114800F4E70068FFF7A8FEF0E70068FFF7DCFEA9
:10115800ECE70220704738B590F83C30012B66D098
:101168000D460446012380F83C30022380F83D30C8
:101178000C2A1AD8DFE802F00719191920191919C9
:101188003419191947000068FFF752FE226893695D
:1011980043F0080393612268936923F00403936181
:1011A8002268936929690B439361012384F83D30D0
:1011B800002084F83C0038BD0068FFF765FF22680E
:1011C800936943F4006393612268936923F480630D
:1011D800936122689369296943EA01239361E4E7EB
:1011E8000068FFF759FE2268D36943F00803D3610A
:1011F8002268D36923F00403D3612268D36929697B
:101208000B43D361D1E70068FFF77EFE2268D369FC
:1012180043F40063D3612268D36923F48063D36104
:101228002268D369296943EA0123D361BDE7022013
:10123800C1E710B401F01F01012303FA01F4036AA6
:1012480023EA04030362036A8A40134303625DF8D6
:10125800044B704710B5044601220068FFF7E9FF08
:1012680023680B4A934203D002F58062934203D16C
:101278005A6C42F400425A642268936803F00703E8
:10128800062B03D0136843F001031360002010BD40
:101298000000014090F83C30012B1CD070B40126AE
:1012A80080F83C60022380F83D30026855689368F6
:1012B80025F070050C682C4323F080054B682B4300
:1012C80054600268936080F83D60002380F83C30E9
:1012D800184670BC7047022070470268D36823F430
:1012E8009073D3600268536923F00103536120238C
:1012F80080F83A30704790F83930DBB2212B2AD188
:101308008368B3F5805F16D0036A5A1C02621A78A4
:1013180003685A60C38C013B9BB2C384EBB9026873
:10132800D36823F08003D3600268D36843F0400396
:10133800D36000207047036A1B880268C3F3080360
:10134800536003691BB9036A02330362E2E7036A65
:1013580001330362DEE70220704700207047000077
:101368002DE9F84304460268136923F44053C16821
:101378000B43136183680269134342691343C269CB
:101388001A430168CB6823F4164323F00C03134374
:10139800CB600268536923F4407381690B4353613E
:1013A800C369B3F5004F60D00368B84A934200F0B0
:1013B800148102F58062934200F00F81FFF718FD57
:1013C80000EB800000EB80006568AD00B0FBF5F530
:1013D800AF4FA7FB05356D092E01FFF709FD00EB9F
:1013E800800000EB80006568AD00B0FBF5F9FFF701
:1013F800FFFC00EB800000EB80006568AD00B0FBEF
:10140800F5F5A7FB05356D094FF0640808FB159540
:101418002D013235A7FB05356D0905F0F00535447A
:10142800FFF7E6FC00EB800000EB80006668B60082
:10143800B0FBF6F6FFF7DCFC00EB800000EB800069
:1014480063689B00B0FBF3F0A7FB0030400908FB82
:1014580010684FEA081808F13208A7FB0837C7F3E5
:10146800431723682F449F600DE10368874A93421E
:101478005BD002F58062934257D0FFF7B9FC00EBCE
:10148800800000EB800065686D00B0FBF5F5804FCB
:10149800A7FB05356D092E01FFF7AAFC00EB8000BC
:1014A80000EB800065686D00B0FBF5F9FFF7A0FC64
:1014B80000EB800000EB800065686D00B0FBF5F57F
:1014C800A7FB05356D094FF0640808FB1595ED007D
:1014D8003235A7FB05356D096D0005F4F8753544FF
:1014E800FFF786FC00EB800000EB80006668760062
:1014F800B0FBF6F6FFF77CFC00EB800000EB800009
:1015080063685B00B0FBF3F3A7FB03235B0908FBED
:1015180013684FEAC80808F13208A7FB0837C7F371
:10152800421723682F449F60ADE0FFF771FC00EB82
:10153800800000EB800065686D00B0FBF5F5544F46
:10154800A7FB05356D092E01FFF762FC00EB800053
:1015580000EB800065686D00B0FBF5F9FFF758FCFB
:1015680000EB800000EB800065686D00B0FBF5F5CE
:10157800A7FB05356D094FF0640808FB1595ED00CC
:101588003235A7FB05356D096D0005F4F87535444E
:10159800FFF73EFC00EB800000EB800066687600F9
:1015A800B0FBF6F6FFF734FC00EB800000EB8000A0
:1015B80063685B00B0FBF3F3A7FB03235B0908FB3D
:1015C80013684FEAC80808F13208A7FB0837C7F3C1
:1015D800421723682F449F6055E0FFF719FC00EB82
:1015E800800000EB80006568AD00B0FBF5F5284F82
:1015F800A7FB05356D092E01FFF70AFC00EB8000FB
:1016080000EB80006568AD00B0FBF5F9FFF700FC62
:1016180000EB800000EB80006568AD00B0FBF5F5DD
:10162800A7FB05356D094FF0640808FB15952D01DA
:101638003235A7FB05356D0905F0F0053544FFF790
:10164800E7FB00EB800000EB80006668B600B0FBAB
:10165800F6F6FFF7DDFB00EB800000EB8000636827
:101668009B00B0FBF3F0A7FB0030400908FB1068B3
:101678004FEA081808F13208A7FB0837C7F34317E1
:1016880023682F449F60BDE8F88300BF0010014025
:101698001F85EB512DE9F04105460F461646984641
:1016A800069C2B681B6837EA03030CBF0123002341
:1016B800B3421DD1B4F1FF3FF3D02CB1FEF74AFF7E
:1016C800A0EB0800A042ECD92A68D36823F4D073B1
:1016D800D3602A68536923F001035361202385F8F6
:1016E800393085F83A30002385F83830032000E097
:1016F8000020BDE8F08158B310B5044690F83930A1
:101708000BB3242384F839302268D36823F40053B8
:10171800D3602046FFF724FE2268136923F4904320
:1017280013612268536923F02A0353612268D3683E
:1017380043F40053D3600020E063202384F8393059
:1017480084F83A3010BD80F8383000F043FDD8E70F
:10175800012070472DE9F04182B01E4690F83930DB
:10176800DBB2202B55D104460D469046002955D0B2
:10177800002A55D090F83830012B53D0012380F837
:1017880038300023C363212380F83930FEF7E2FEA6
:101798000746A4F82480A4F8268010E000963B466B
:1017A800002280212046FFF775FF00283CD12B88B6
:1017B8002268C3F3080353602369C3B90235E38C75
:1017C8009BB2B3B1E38C013B9BB2E384A368B3F54E
:1017D800805FE3D000963B46002280212046FFF739
:1017E80059FF18BB2A7823685A600135E7E70135A5
:1017F800E5E700963B46002240212046FFF74AFFD6
:101808000346A8B9202284F83920002284F8382019
:1018180000E00223184602B0BDE8F0810123F9E791
:101828000123F7E70223F5E70323F3E70323F1E7AF
:101838000323EFE790F83A30DBB2202B20D109B32D
:1018480012B390F83830012B20D081628285C2858E
:101858000023C363222280F83A2080F838300168D8
:10186800CA6842F48072CA6001684A6942F001029B
:101878004A610168CA6842F02002CA601846704787
:1018880002207047012070470120704702207047EE
:10189800704708B50168CB6823F04003CB6020236C
:1018A80080F83930FFF7F4FF002008BD08B590F83C
:1018B8003A30DBB2222B45D18368B3F5805F0ED076
:1018C800036903BB03685A68836A591C81621A70EA
:1018D800C38D013B9BB2C385F3B1002033E0826A1C
:1018E800036943B903685B68C3F308031380836A19
:1018F80002338362ECE703685B68DBB21380836AB8
:1019080001338362E4E703685B68826A511C816281
:1019180003F07F031370DBE70268D36823F020032A
:10192800D3600268D36823F48073D3600268536974
:1019380023F001035361202380F83A3000F0D6FBEE
:10194800002000E0022008BD7047000010B50446E2
:1019580002681368D168526913F00F0005D113F0BB
:10196800200F02D011F0200F53D1002867D012F0B9
:10197800010202D111F4907F61D013F0010F06D05B
:1019880011F4807F03D0E06B40F00100E06313F0B6
:10199800040F04D01AB1E06B40F00200E06313F0CA
:1019A800020F04D01AB1E06B40F00400E06313F0BA
:1019B800080F04D01AB1E26B42F00802E263E26B4E
:1019C800002A48D013F0200F02D011F0200F24D1A4
:1019D80023685B6903F04003E26B12F0080F00D143
:1019E8003BB32046FFF779FC23685A6912F0400F91
:1019F8001BD05A6922F040025A61636B8BB11A4AB4
:101A08001A65606BFEF716FE28B3606B036D984786
:101A180021E02046FFF74AFF1DE02046FFF746FF7A
:101A2800D6E72046FFF790FF15E02046FFF78CFF2A
:101A380011E02046FFF788FF0023E3630BE013F073
:101A4800800F02D011F0800F06D113F0400F02D0A2
:101A580011F0400F04D110BD2046FFF74CFCFAE707
:101A68002046FFF716FFF6E7751A000808B5806BE1
:101A78000023C385C384FFF767FF08BD70B50C4614
:101A880016461D46FFF7E7FA2660A56070BD08B543
:101A98004B60FFF731FB08BD8EB0734B984238D0CE
:101AA800B0F1804F43D0714B98424DD0704B984263
:101AB80057D0704B984261D06F4B98426BD06F4BA8
:101AC800984275D06E4B98427FD06E4B984200F08A
:101AD80089806D4B984200F092806C4B984200F0E0
:101AE8009B806B4B984200F0A4806A4B984200F0B0
:101AF800AD80694B984218D100230D93674B1A6C3F
:101B080042F480721A641B6C03F480730D930D9B6E
:101B18000BE000230093614B5A6C42F001025A64B7
:101B28005B6C03F001030093009B0EB07047002329
:101B380001935A4B1A6C42F001021A641B6C03F0B1
:101B480001030193019BF0E700230293534B1A6CA6
:101B580042F002021A641B6C03F002030293029B18
:101B6800E3E7002303934D4B1A6C42F004021A6416
:101B78001B6C03F004030393039BD6E70023049331
:101B8800464B1A6C42F008021A641B6C03F00803F7
:101B98000493049BC9E700230593404B1A6C42F059
:101BA80010021A641B6C03F010030593059BBCE735
:101BB80000230693394B1A6C42F020021A641B6CFE
:101BC80003F020030693069BAFE700230793334BEC
:101BD8005A6C42F002025A645B6C03F002030793EA
:101BE800079BA2E7002308932C4B5A6C42F48032DF
:101BF8005A645B6C03F480330893089B95E70023D1
:101C08000993264B5A6C42F400325A645B6C03F415
:101C180000330993099B88E700230A931F4B5A6CEA
:101C280042F480225A645B6C03F480230A930A9B73
:101C38007BE700230B93194B1A6C42F040021A649D
:101C48001B6C03F040030B930B9B6EE700230C9374
:101C5800124B1A6C42F080021A641B6C03F080036A
:101C68000C930C9B61E700BF00000140000400409A
:101C780000080040000C0040001000400014004024
:101C88000004014000400140004401400048014078
:101C980000180040001C00400020004000380240AE
:101CA800F0B583B004460D4617461E460846FFF7B2
:101CB800F3FE25600023A36023616760E660204689
:101CC800FFF7B0F91023009380230193694620465B
:101CD800FFF7E0FA03B0F0BD88B0404B984221D03E
:101CE8003F4B98422CD03F4B984236D03E4B9842BF
:101CF80040D03E4B98424AD03D4B984254D03D4B41
:101D080098425ED03C4B984218D1002307933B4B36
:101D18001A6B42F080021A631B6B03F0800307936F
:101D2800079B0BE000230093344B1A6B42F001022F
:101D38001A631B6B03F001030093009B08B0704704
:101D4800002301932D4B1A6B42F002021A631B6B9E
:101D580003F002030193019BF0E700230293274B52
:101D68001A6B42F004021A631B6B03F0040302931C
:101D7800029BE3E700230393204B1A6B42F008020F
:101D88001A631B6B03F008030393039BD6E7002336
:101D980004931A4B1A6B42F010021A631B6B03F080
:101DA80010030493049BC9E700230593134B1A6B94
:101DB80042F020021A631B6B03F020030593059B76
:101DC800BCE7002306930D4B1A6B42F040021A63DE
:101DD8001B6B03F040030693069BAFE7000002402D
:101DE8000004024000080240000C024000100240BB
:101DF8000014024000180240001C02400038024053
:101E080070B586B004460E461546FFF765FF029684
:101E180006A941F8145D2046FEF720FC06B070BD07
:101E2800F0B587B004460F4615461E46FFF754FF27
:101E38000297059606A941F8145D2046FEF70EFCA8
:101E480007B0F0BD10B588B0002405940694079437
:101E58000094184B1A6B42F004021A631A6B02F0D2
:101E680004020092009A01941A6B42F080021A63ED
:101E78001A6B02F080020192019A02941A6B42F0E6
:101E880001021A631B6B03F001030293029B4FF4D8
:101E980000630393084B049303A90848FEF7DEFB8D
:101EA800224621462820FEF76DFB2820FEF79EFBE0
:101EB80008B010BD003802400000211000080240A0
:101EC80008B50948094B03604FF4E1334360002328
:101ED8008360C36003610C22426183614FF4004355
:101EE800C361FFF708FC08BDD00000200044004093
:101EF80030B58BB00024089409940194029403949B
:101F08000494059406940794114D124B2B602023DA
:101F18006B60AC604FF47A63EB602C61AC6128466F
:101F2800FFF799F80894099408A92846FFF7B2F929
:101F380070230193029403940594082201A928466A
:101F4800FFF709F9284600F019F90BB030BD00BFBA
:101F58007400002000040040B0F5006F00D0704706
:101F6800024A136801331360F9E700BF2800002014
:101F780010B594B03022002108A800F0F9F9002427
:101F8800039404940594069407940194154B1A6CD1
:101F980042F080521A641B6C03F080530193019B3A
:101FA8000294114B1A6842F480421A601B6803F4C9
:101FB80080430293029B0223089301230B9310236F
:101FC8000C930E9408A8FEF741FC0F230393049486
:101FD800059406940794214603A8FEF757FE14B00B
:101FE80010BD00BF003802400070004080B582B0CC
:101FF800FEF78AFA334D802201212846FFF700FFB9
:10200800314E012211463046FFF7FAFEFFF7B0FFC6
:10201800FFF718FFFFF754FFFFF76AFF02234FF49B
:10202800807219462948FFF7FBFE294C4FF47A6362
:10203800002228492046FFF733FE274F002370224D
:1020480039462046FFF71AFD012224492448FFF7A4
:10205800F1FB40F2DC53082239462046FFF717FD12
:1020680008212048FFF7F6F8012211463046FEF70E
:10207800D9FB002280212846FEF7D4FBAA238DF83D
:102088000730194B5B79002BFBD0174B00221A60E5
:10209800012280210B48FEF7C5FB134B1B68402B20
:1020A800FBD1002280210748FEF7BCFB0A2301224E
:1020B8000DF107010A48FFF74DFB0B4B00225A713F
:1020C800DFE700BF000C02400004024000080240A5
:1020D8001001002000040040B40000202C00002063
:1020E800D0000020740000202800002008B5064B0E
:1020F800834205D0012205490348FFF79BFB08BD31
:10210800034B01225A71F5E7D00000202C00002073
:102118002800002082B0002100910B4B5A6C42F439
:1021280080425A645A6C02F480420092009A0191EB
:102138001A6C42F080521A641B6C03F080530193AE
:10214800019B02B0704700BF003802400268094B8B
:102158009A4200D0704782B000230193064B1A6C54
:1021680042F002021A641B6C03F002030193019B04
:1021780002B07047000400400038024000B587B044
:1021880000230193029303930493059302680E4B73
:102198009A4202D007B05DF804FB002300930B4B72
:1021A8001A6B42F004021A631B6B03F004030093DA
:1021B800009B4FF48073019302230293059301A9B6
:1021C8000348FEF74BFAE5E70004004000380240F8
:1021D8000008024010B588B00023039304930593C8
:1021E800069307930268194B9A4201D008B010BDB4
:1021F8000024019403F5FA331A6C42F400321A648D
:102208001A6C02F400320192019A02941A6B42F09D
:1022180001021A631B6B03F001030293029B0C2358
:1022280003930223049301230593032306930723AF
:10223800079303A90648FEF711FA224621462620ED
:10224800FEF7A0F92620FEF7D1F9CFE700440040B9
:10225800000002407047FEE7FEE7FEE7FEE7704732
:102268007047704708B5FEF769F908BD08B5024818
:10227800FFF76CFB08BD00BFD000002008B54FF485
:102288000060FEF7D5FA08BD0F49D1F8883043F44D
:102298007003C1F888300D4B1A6842F001021A60C9
:1022A800002098601A6822F0847222F480321A6042
:1022B800074A5A601A6822F480221A60D8604FF0E0
:1022C80000638B60704700BF00ED00E000380240FB
:1022D80010300024DFF834D0002103E00C4B5B58A9
:1022E800435004310B480C4B42189A42F6D30B4A20
:1022F80002E0002342F8043B094B9A42F9D3FFF766
:10230800C3FF00F011F8FFF771FE704700000220CC
:10231800C8230008000000200C0000200C0000204A
:1023280050010020FEE7000070B50D4E0D4CA41BB7
:10233800A4100025A54209D10B4E0C4C00F020F842
:10234800A41BA4100025A54205D170BD56F8253060
:1023580098470135EEE756F8253098470135F2E7FA
:10236800C0230008C0230008C0230008C4230008B5
:1023780002440346934200D1704703F8011BF9E772
:10238800F8B500BFF8BC08BC9E467047F8B500BF5A
:08239800F8BC08BC9E4670472A
:1023A0000000000000000000010203040607080905
:0823B00000000000010203041B
:0823B80040DEFF7F0100000080
:0423C000AD01000863
:0423C4008901000883
:0C23C80001000000100000000024F400E0
:04000005080022DDF0
:00000001FF
